{
  "contractName": "ItemManager",
  "abi": [
    {
      "anonymous": false,
      "inputs": [
        {
          "indexed": false,
          "internalType": "uint256",
          "name": "_itemIndex",
          "type": "uint256"
        },
        {
          "indexed": false,
          "internalType": "uint256",
          "name": "_step",
          "type": "uint256"
        },
        {
          "indexed": false,
          "internalType": "address",
          "name": "_address",
          "type": "address"
        }
      ],
      "name": "SupplyChainStep",
      "type": "event"
    },
    {
      "inputs": [],
      "name": "_owner",
      "outputs": [
        {
          "internalType": "address",
          "name": "",
          "type": "address"
        }
      ],
      "stateMutability": "view",
      "type": "function"
    },
    {
      "inputs": [],
      "name": "isOwner",
      "outputs": [
        {
          "internalType": "bool",
          "name": "",
          "type": "bool"
        }
      ],
      "stateMutability": "view",
      "type": "function"
    },
    {
      "inputs": [
        {
          "internalType": "uint256",
          "name": "",
          "type": "uint256"
        }
      ],
      "name": "items",
      "outputs": [
        {
          "internalType": "contract Item",
          "name": "_item",
          "type": "address"
        },
        {
          "internalType": "enum ItemManager.SupplyChainSteps",
          "name": "_step",
          "type": "uint8"
        },
        {
          "internalType": "string",
          "name": "_identifier",
          "type": "string"
        }
      ],
      "stateMutability": "view",
      "type": "function"
    },
    {
      "inputs": [
        {
          "internalType": "string",
          "name": "_identifier",
          "type": "string"
        },
        {
          "internalType": "uint256",
          "name": "_priceInWei",
          "type": "uint256"
        }
      ],
      "name": "createItem",
      "outputs": [],
      "stateMutability": "nonpayable",
      "type": "function"
    },
    {
      "inputs": [
        {
          "internalType": "uint256",
          "name": "_index",
          "type": "uint256"
        }
      ],
      "name": "triggerPayment",
      "outputs": [],
      "stateMutability": "payable",
      "type": "function"
    },
    {
      "inputs": [
        {
          "internalType": "uint256",
          "name": "_index",
          "type": "uint256"
        }
      ],
      "name": "triggerDelivery",
      "outputs": [],
      "stateMutability": "nonpayable",
      "type": "function"
    }
  ],
  "bytecode": "0x608060405234801561001057600080fd5b50336000806101000a81548173ffffffffffffffffffffffffffffffffffffffff021916908373ffffffffffffffffffffffffffffffffffffffff160217905550611181806100606000396000f3fe6080604052600436106100555760003560e01c8063800fb83f1461005a5780638c551742146100885780638f32d59b1461015a578063b2bdfa7b14610187578063bfb231d2146101c8578063cd31831e146102ab575b600080fd5b6100866004803603602081101561007057600080fd5b81019080803590602001909291905050506102e6565b005b34801561009457600080fd5b50610158600480360360408110156100ab57600080fd5b81019080803590602001906401000000008111156100c857600080fd5b8201836020820111156100da57600080fd5b803590602001918460018302840111640100000000831117156100fc57600080fd5b91908080601f016020809104026020016040519081016040528093929190818152602001838380828437600081840152601f19601f8201169050808301925050505050505091929192908035906020019092919050505061066c565b005b34801561016657600080fd5b5061016f6108aa565b60405180821515815260200191505060405180910390f35b34801561019357600080fd5b5061019c610901565b604051808273ffffffffffffffffffffffffffffffffffffffff16815260200191505060405180910390f35b3480156101d457600080fd5b50610201600480360360208110156101eb57600080fd5b8101908080359060200190929190505050610925565b604051808473ffffffffffffffffffffffffffffffffffffffff16815260200183600281111561022d57fe5b815260200180602001828103825283818151815260200191508051906020019080838360005b8381101561026e578082015181840152602081019050610253565b50505050905090810190601f16801561029b5780820380516001836020036101000a031916815260200191505b5094505050505060405180910390f35b3480156102b757600080fd5b506102e4600480360360208110156102ce57600080fd5b8101908080359060200190929190505050610a14565b005b6102ee6108aa565b610360576040517f08c379a00000000000000000000000000000000000000000000000000000000081526004018080602001828103825260208152602001807f4f776e61626c653a2063616c6c6572206973206e6f7420746865206f776e657281525060200191505060405180910390fd5b60006001600083815260200190815260200160002060000160009054906101000a900473ffffffffffffffffffffffffffffffffffffffff1690503373ffffffffffffffffffffffffffffffffffffffff168173ffffffffffffffffffffffffffffffffffffffff161461041f576040517f08c379a000000000000000000000000000000000000000000000000000000000815260040180806020018281038252602b8152602001806110fe602b913960400191505060405180910390fd5b348173ffffffffffffffffffffffffffffffffffffffff16633c8da5886040518163ffffffff1660e01b815260040160206040518083038186803b15801561046657600080fd5b505afa15801561047a573d6000803e3d6000fd5b505050506040513d602081101561049057600080fd5b810190808051906020019092919050505014610514576040517f08c379a00000000000000000000000000000000000000000000000000000000081526004018080602001828103825260128152602001807f4e6f742066756c6c79207061696420796574000000000000000000000000000081525060200191505060405180910390fd5b6000600281111561052157fe5b6001600084815260200190815260200160002060000160149054906101000a900460ff16600281111561055057fe5b146105a6576040517f08c379a00000000000000000000000000000000000000000000000000000000081526004018080602001828103825260238152602001806111296023913960400191505060405180910390fd5b600180600084815260200190815260200160002060000160146101000a81548160ff021916908360028111156105d857fe5b02179055507fa4035636e99f06b7651a604c1019fa4e8779fe68ef27eeb74dff2de348f6199b826001600085815260200190815260200160002060000160149054906101000a900460ff16600281111561062e57fe5b83604051808481526020018381526020018273ffffffffffffffffffffffffffffffffffffffff168152602001935050505060405180910390a15050565b6106746108aa565b6106e6576040517f08c379a00000000000000000000000000000000000000000000000000000000081526004018080602001828103825260208152602001807f4f776e61626c653a2063616c6c6572206973206e6f7420746865206f776e657281525060200191505060405180910390fd5b600030826002546040516106f990610ba2565b808473ffffffffffffffffffffffffffffffffffffffff1681526020018381526020018281526020019350505050604051809103906000f080158015610743573d6000803e3d6000fd5b5090508060016000600254815260200190815260200160002060000160006101000a81548173ffffffffffffffffffffffffffffffffffffffff021916908373ffffffffffffffffffffffffffffffffffffffff160217905550600060016000600254815260200190815260200160002060000160146101000a81548160ff021916908360028111156107d257fe5b0217905550826001600060025481526020019081526020016000206001019080519060200190610803929190610baf565b507fa4035636e99f06b7651a604c1019fa4e8779fe68ef27eeb74dff2de348f6199b60025460016000600254815260200190815260200160002060000160149054906101000a900460ff16600281111561085957fe5b83604051808481526020018381526020018273ffffffffffffffffffffffffffffffffffffffff168152602001935050505060405180910390a1600260008154809291906001019190505550505050565b60008060009054906101000a900473ffffffffffffffffffffffffffffffffffffffff1673ffffffffffffffffffffffffffffffffffffffff163373ffffffffffffffffffffffffffffffffffffffff1614905090565b60008054906101000a900473ffffffffffffffffffffffffffffffffffffffff1681565b60016020528060005260406000206000915090508060000160009054906101000a900473ffffffffffffffffffffffffffffffffffffffff16908060000160149054906101000a900460ff1690806001018054600181600116156101000203166002900480601f016020809104026020016040519081016040528092919081815260200182805460018160011615610100020316600290048015610a0a5780601f106109df57610100808354040283529160200191610a0a565b820191906000526020600020905b8154815290600101906020018083116109ed57829003601f168201915b5050505050905083565b60016002811115610a2157fe5b6001600083815260200190815260200160002060000160149054906101000a900460ff166002811115610a5057fe5b14610aa6576040517f08c379a00000000000000000000000000000000000000000000000000000000081526004018080602001828103825260238152602001806111296023913960400191505060405180910390fd5b60026001600083815260200190815260200160002060000160146101000a81548160ff02191690836002811115610ad957fe5b02179055507fa4035636e99f06b7651a604c1019fa4e8779fe68ef27eeb74dff2de348f6199b816001600084815260200190815260200160002060000160149054906101000a900460ff166002811115610b2f57fe5b6001600085815260200190815260200160002060000160009054906101000a900473ffffffffffffffffffffffffffffffffffffffff16604051808481526020018381526020018273ffffffffffffffffffffffffffffffffffffffff168152602001935050505060405180910390a150565b6104b180610c4d83390190565b828054600181600116156101000203166002900490600052602060002090601f016020900481019282601f10610bf057805160ff1916838001178555610c1e565b82800160010185558215610c1e579182015b82811115610c1d578251825591602001919060010190610c02565b5b509050610c2b9190610c2f565b5090565b5b80821115610c48576000816000905550600101610c30565b509056fe608060405234801561001057600080fd5b506040516104b13803806104b18339818101604052606081101561003357600080fd5b81019080805190602001909291908051906020019092919080519060200190929190505050816000819055508060028190555082600360006101000a81548173ffffffffffffffffffffffffffffffffffffffff021916908373ffffffffffffffffffffffffffffffffffffffff1602179055505050506103f8806100b96000396000f3fe6080604052600436106100385760003560e01c80632986c0e51461030e5780633c8da5881461033957806383d12eef14610364576102ff565b366102ff576000543414610097576040517f08c379a00000000000000000000000000000000000000000000000000000000081526004018080602001828103825260218152602001806103a26021913960400191505060405180910390fd5b60006001541461010f576040517f08c379a00000000000000000000000000000000000000000000000000000000081526004018080602001828103825260158152602001807f4974656d20697320616c7265616479207061696421000000000000000000000081525060200191505060405180910390fd5b346001600082825401925050819055506000600360009054906101000a900473ffffffffffffffffffffffffffffffffffffffff1673ffffffffffffffffffffffffffffffffffffffff1634600254604051602401808281526020019150506040516020818303038152906040527f800fb83f000000000000000000000000000000000000000000000000000000007bffffffffffffffffffffffffffffffffffffffffffffffffffffffff19166020820180517bffffffffffffffffffffffffffffffffffffffffffffffffffffffff83818316178352505050506040518082805190602001908083835b6020831061021e57805182526020820191506020810190506020830392506101fb565b6001836020036101000a03801982511681845116808217855250505050505090500191505060006040518083038185875af1925050503d8060008114610280576040519150601f19603f3d011682016040523d82523d6000602084013e610285565b606091505b50509050806102fc576040517f08c379a00000000000000000000000000000000000000000000000000000000081526004018080602001828103825260158152602001807f44656c697665727920646964206e6f7420776f726b000000000000000000000081525060200191505060405180910390fd5b50005b34801561030b57600080fd5b50005b34801561031a57600080fd5b5061032361038f565b6040518082815260200191505060405180910390f35b34801561034557600080fd5b5061034e610395565b6040518082815260200191505060405180910390f35b34801561037057600080fd5b5061037961039b565b6040518082815260200191505060405180910390f35b60025481565b60005481565b6001548156fe576520646f6e277420737570706f7274207061727469616c207061796d656e7473a26469706673582212201c210aea824347ef69166ce0dcff60137ec03df0d17fd3bdeb4279f7ee65146864736f6c634300060c00334f6e6c79206974656d732061726520616c6c6f77656420746f20757064617465207468656d73656c7665734974656d206973206675727468657220696e2074686520737570706c7920636861696ea2646970667358221220c23391a0266b32e1be5d971ae613ed857143b80aff130d21d8e14909f835f90664736f6c634300060c0033",
  "immutableReferences": {},
  "source": "pragma solidity ^0.6.0;\r\n\r\nimport \"./Item.sol\";\r\nimport \"./Ownable.sol\";\r\n\r\ncontract ItemManager is Ownable {\r\n\r\n    struct S_Item {\r\n        Item _item;\r\n        ItemManager.SupplyChainSteps _step;\r\n        string _identifier;\r\n    }\r\n    mapping(uint => S_Item) public items;\r\n    uint index;\r\n\r\n    enum SupplyChainSteps {Created, Paid, Delivered}\r\n\r\n    event SupplyChainStep(uint _itemIndex, uint _step, address _address);\r\n\r\n    function createItem(string memory _identifier, uint _priceInWei) public onlyOwner {\r\n        Item item = new Item(this, _priceInWei, index);\r\n        items[index]._item = item;\r\n        items[index]._step = SupplyChainSteps.Created;\r\n        items[index]._identifier = _identifier;\r\n        emit SupplyChainStep(index, uint(items[index]._step), address(item));\r\n        index++;\r\n    }\r\n\r\n    function triggerPayment(uint _index) public payable onlyOwner {\r\n        Item item = items[_index]._item;\r\n        require(address(item) == msg.sender, \"Only items are allowed to update themselves\");\r\n        require(item.priceInWei() == msg.value, \"Not fully paid yet\");\r\n        require(items[_index]._step == SupplyChainSteps.Created, \"Item is further in the supply chain\");\r\n        items[_index]._step = SupplyChainSteps.Paid;\r\n        emit SupplyChainStep(_index, uint(items[_index]._step), address(item));\r\n    }\r\n\r\n    function triggerDelivery(uint _index) public {\r\n        require(items[_index]._step == SupplyChainSteps.Paid, \"Item is further in the supply chain\");\r\n        items[_index]._step = SupplyChainSteps.Delivered;\r\n        emit SupplyChainStep(_index, uint(items[_index]._step), address(items[_index]._item));\r\n    }\r\n}",
  "sourcePath": "C:/Users/TOG/Desktop/blockchain/supply-chain-truffle/contracts/ItemManager.sol",
  "compiler": {
    "name": "solc",
    "version": "0.6.12+commit.27d51765.Emscripten.clang"
  },
  "schemaVersion": "3.4.1",
  "updatedAt": "2021-09-10T13:33:45.718Z",
  "devdoc": {
    "kind": "dev",
    "methods": {
      "isOwner()": {
        "details": "Returns true if the caller is the current owner."
      }
    },
    "version": 1
  },
  "userdoc": {
    "kind": "user",
    "methods": {},
    "version": 1
  }
}